:100000000C9434000C9451000C9451000C94510049
:100010000C9451000C9451000C9451000C9451001C
:100020000C9451000C9451000C9451000C94D2008B
:100030000C9451000C9451000C9451000C945100FC
:100040000C9451000C9451000C9451000C945100EC
:100050000C9451000C9451000C9451000C945100DC
:100060000C9451000C94510011241FBECFEFD8E026
:10007000DEBFCDBF11E0A0E0B1E0ECECF4E002C0E7
:1000800005900D92AA31B107D9F711E0AAE1B1E0CC
:1000900001C01D92AD31B107E1F70E94EA010C9455
:1000A00064020C94000089B199B1892382FDFBCFD1
:1000B0004A9BFECF0895CF93DF930E947E0161E0BB
:1000C00080E00E94730180910901DAE06D2F0E94A7
:1000D00013024AE050E0C0E06C2F70E090E00E9414
:1000E0001F028C2F90E00E949801809109016D2FD2
:1000F0000E941302892F4AE050E06C2F70E090E0DC
:100100000E941F028C2F90E00E9498018AE091E0EB
:100110000E94980180911C016D2F0E9413024AE0F9
:1001200050E06C2F70E090E00E941F028C2F90E056
:100130000E94980180911C016D2F0E941302892F4B
:100140004AE050E06C2F70E090E00E941F028C2F7C
:1001500090E00E9498018AE091E00E9498018091CD
:100160001B016D2F0E9413024AE050E06C2F70E0DB
:1001700090E00E941F028C2F90E00E9498018091D5
:100180001B016D2F0E941302892F4AE050E06C2F53
:1001900070E090E00E941F028C2F90E0DF91CF91E1
:1001A0000C9498011F920F920FB60F9211242F9367
:1001B0003F934F935F936F937F938F939F93AF93EF
:1001C000BF93EF93FF938BB180588BB980911B0144
:1001D0008F5F8C3319F080931B0107C010921B01B5
:1001E00080911C018F5F80931C0180911C018C33D6
:1001F00039F410921C01809109018F5F80930901ED
:10020000809109018D3019F481E0809309010E94E9
:100210005B00FF91EF91BF91AF919F918F917F9183
:100220006F915F914F913F912F910F900FBE0F9063
:100230001F9018955C9A00C05C9808951F93CF9307
:10024000DF931F92CDB7DEB7662311F05E9A01C02F
:100250005E985D989AB19F609AB91BB1107F982FF4
:1002600092959F70912B9BB989830E941A01898175
:100270008F70812B8BB90E941A011F601BB90F90E0
:10028000DF91CF911F9108955E985D9A8AB1807F2A
:100290008AB95C9A00C089B15C9800C05C9A00C0C1
:1002A00099B15C989F708295807F892B08950E94F8
:1002B000440187FDFCCF82E090E00197F1F70C94B8
:1002C0004401CF93C82F0E94570160E08C2FCF913B
:1002D0000C941E01CF93C82F0E94570161E08C2F10
:1002E000CF910C941E01611102C0805801C080544E
:1002F0000C9461010E94570190E0089581E00C94F4
:10030000610182E00C946101CF93C82F0E945701D4
:10031000CA3049F4803410F480E401C080E0805891
:10032000CF910C94610161E08C2FCF910C941E0150
:10033000CF93DF93EC0102C00E9484018991811167
:10034000FBCFDF91CF910895CF93DF93EC0102C0F3
:100350000E948401FE01219684918111F9CFDF91E1
:10036000CF9108951F93CF93DF93182F9AB19F6079
:100370009AB9569A559A549AE0E8FEE33197F1F704
:10038000599A589A0E941A01E0E8F3E13197F1F77F
:100390000E941A01C0E4D0E0FE013197F1F70E94FB
:1003A0001A01FE013197F1F758980E941A0121971E
:1003B000F1F788E20E94610188E00E9461010E94D9
:1003C0007E0186E00E946101812FDF91CF911F9114
:1003D0000C946101F8948091810083608093810086
:1003E00088E09DE39093890080938800809181004C
:1003F00088608093810080916F00826080936F009D
:100400007894579A5F9A52985A9A8CE00E94B20157
:100410000E947E018CE091E00E94980180E091E0D2
:100420000E949801FFCF991B79E004C0991F96178D
:1004300008F0961B881F7A95C9F780950895FB01EF
:100440009F01E8944230C4F04532B4F44A3029F4B4
:1004500097FB1EF4909581959F4F642F77270E94FC
:100460005002805D8A330CF0895D8193CB01009747
:10047000A1F716F45DE251931082C9010C94400279
:10048000DC01FC01672F71917723E1F7329704C0FB
:100490007C916D9370836291AE17BF07C8F3089586
:1004A000AA1BBB1B51E107C0AA1FBB1FA617B7079A
:1004B00010F0A61BB70B881F991F5A95A9F78095B6
:0C04C0009095BC01CD010895F894FFCF89
:1004CC0030303A30303A3030000C3A0048656C6CC1
:0A04DC006F20576F726C640A000075
:00000001FF
